:100000000C9462000C948A000C948A000C948A0070
:100010000C948A000C948A000C948A000C948A0038
:100020000C948A000C948A000C948A000C948A0028
:100030000C948A000C948A000C948A000C948A0018
:100040000C94F0040C948A000C9438050C9465050B
:100050000C948A000C948A000C948A000C948A00F8
:100060000C948A000C948A000000000023002600F3
:10007000290000000008000201000003040700003E
:1000800000000000000000000000250028002B00F8
:1000900000000000240027002A00040404040404D3
:1000A0000404020202020202030303030303010227
:1000B00004081020408001020408102001020408F6
:1000C00010208B0511241FBECFEFD8E0DEBFCDBFBF
:1000D00011E0A0E0B1E0E0EFF4E102C005900D9284
:1000E000A032B107D9F721E0A0E2B1E001C01D9232
:1000F000A93FB207E1F710E0C2E6D0E004C02197C3
:10010000FE010E942908C136D107C9F70E94B8052F
:100110000C94660A0C940000482FE82FF92F8FEFFB
:100120009FEF2E2F241B261708F008952191822778
:1001300058E0282F217033273195219531092170FE
:10014000307A96958795822793275A9591F7E9CF2C
:100150000F931F93282F48E060E070E0CB012E50F2
:10016000522F5064EBE1F3E050937C0020917A0031
:10017000206420937A0020917A0026FDFCCF009124
:10018000780010917900012E000C220B330B600FC8
:10019000711F821F931FDF011197F1F74A9521F715
:1001A0000E94440920E030E040E05EE30E94F9094B
:1001B0001F910F9108953FB7F89480914B01909152
:1001C0004C01A0914D01B0914E0126B5A89B05C0F0
:1001D0002F3F19F00196A11DB11D3FBFBA2FA92FC6
:1001E000982F8827BC01CD01620F711D811D911DC3
:1001F00042E0660F771F881F991F4A95D1F708952F
:10020000CF93DF9390E0FC01E255FF4F2491865697
:100210009F4FFC0184918115D1F090E0880F991FC8
:10022000FC01E057FF4FA591B591FC01EA57FF4F44
:10023000C591D5919FB7623069F4F8943C91822FB3
:10024000809583238C938881822B88839FBFDF9145
:10025000CF910895F8948C91822B8C93F7CF8430B2
:1002600081F050F48230A9F0833079F480918000DD
:100270008F77809380000895873071F0883091F0F7
:100280000895809180008F7DF4CF84B58F7784BDF1
:10029000089584B58F7DFBCF8091B0008F778093D8
:1002A000B00008958091B0008F7DF9CF1F93CF9358
:1002B000DF93162F282F30E0F901EE58FF4F84917D
:1002C000F901E255FF4FD491F901E656FF4FC49171
:1002D000C115A1F081110E942F01EC2FF0E0EE0F6B
:1002E000FF1FEA57FF4FA591B5919FB7F8948C91E6
:1002F000111108C0D095D823DC939FBFDF91CF9117
:100300001F9108958D2B8C93F8CFCF93DF93282FD7
:1003100030E0F901EE58FF4F8491F901E255FF4FAB
:10032000D491F901E656FF4FC491C11581F08111B6
:100330000E942F01EC2FF0E0EE0FFF1FE859FF4F56
:10034000A591B591EC91ED2381E0E11101C080E030
:1003500090E0DF91CF9108958F929F92AF92BF92DC
:10036000CF92DF92EF92FF920F931F93CF93DF9381
:100370008EE00E94A8004B015C018FE00E94A80063
:100380006B017C0180E10E94A8008B01D82FC92F4E
:1003900020E030EC4FE754E4B601C7010E94A10809
:1003A00020E030E040EA50E40E94F90920E030E02B
:1003B00040EA50E40E94A10820E030E046E154E425
:1003C0000E94F90920E030E0A9010E9430086B0189
:1003D0007C0120E030EC4FE754E4B8018D2F9C2FD6
:1003E0000E94A10820E030E040EA50E40E94F909B0
:1003F00020E030E040EA50E40E94A10820E030E82C
:100400004BE355E40E94F90920E030E0A9010E9485
:1004100030088B01D82FC92F20E030EC4FE754E48F
:10042000B401C5010E94A10820E030E040EA50E498
:100430000E94F90920E030E040EA50E40E94A1085F
:1004400020E030E040EA51E40E94F90920E030E089
:10045000A9010E94300820E030E048EC52E40E94FC
:10046000F9094B015C0120E030E0A9010E949C08E1
:1004700020E030E087FD11C020E03FEF4FE757E478
:10048000B401C5010E94F4092FEF3FEF18162CF0BC
:10049000B401C5010E9413099B01309357012093B9
:1004A000560120E030E048EC52E4B601C7010E945A
:1004B000F9096B017C0120E030E0A9010E949C0851
:1004C00020E030E087FD11C020E03FEF4FE757E428
:1004D000B601C7010E94F4092FEF3FEF18162CF068
:1004E000B601C7010E9413099B0130935901209363
:1004F000580120E030E040E251E4B8018D2F9C2FFC
:100500000E94F9098B01D82FC92F20E030E0A90102
:100510000E949C0887FD32C020E03FEF4FE757E480
:10052000B8018D2F9C2F0E94F409181654F1B801C0
:100530008D2F9C2F0E941309CB0190935B01809318
:100540005A0182E00E94850121E082278170809318
:10055000540183E00E94850121E08227817080930D
:100560005501DF91CF911F910F91FF90EF90DF9098
:10057000CF90BF90AF909F908F90089580E090E0D3
:10058000DCCF8FEF9FEFD9CFFC01A48DA80FB92F3F
:10059000B11DA35ABF4F2C91848D90E001968F73AB
:1005A0009927848FA689B7892C93A089B1898C91CA
:1005B000837080648C93938D848D981306C0028819
:1005C000F389E02D80818F7D80830895FC01818DEA
:1005D000228D90E0805C9F4F821B91098F73992739
:1005E00008958CE591E00E94E6029C0181E0232BB6
:1005F00009F480E0089580E090E0892B29F00E94C2
:10060000F10281110C9400000895FC01918D828DFE
:10061000981731F0828DE80FF11D858D90E00895D7
:100620008FEF9FEF0895FC01918D828D981761F0F7
:10063000A28DAE0FBF2FB11D5D968C91928D9F5FE5
:100640009F73928F90E008958FEF9FEF0895FC01C4
:10065000538D448D842F90E0252F30E0821B930B27
:10066000541710F0CF96089501970895CF93DF9314
:10067000EC01888D81110FC0DF91CF9108950FB6E5
:1006800007FC0DC08C9185FF0AC0808185FF07C0E3
:10069000CE010E94C402AA89BB89E889F9898C919C
:1006A00085FDEDCF808186FFEACFE6CFEF92FF9206
:1006B0000F931F93CF93DF93EC01F62E81E0888F89
:1006C0009B8D8C8D98131AC0E889F989808185FFEC
:1006D00015C09FB7F894EE89FF896083E889F9898E
:1006E00080818370806480839FBF81E090E0DF9190
:1006F000CF911F910F91FF90EF9008950B8D10E017
:100700000F5F1F4F0F731127E02E8C8D8E1579F020
:10071000EB8DEC0FFD2FF11DE35AFF4FF0829FB7D9
:10072000F8940B8FEA89FB8980818062DCCF0FB659
:1007300007FCEBCFE889F989808185FFE6CFCE0100
:100740000E94C402E2CFCF92DF92EF92FF920F930A
:100750001F93CF93DF937C016A0100E010E00C153A
:100760001D0551F4C801DF91CF911F910F91FF90AA
:10077000EF90DF90CF900895EB01D701ED91FC91C0
:100780000190F081E02D6991C7010995892B51F302
:100790000F5F1F4FBE01E3CFFF920F931F93CF93C5
:1007A000DF93182FD92FC62F0E948C00F82E092F07
:1007B0004C2F50E0612F7D2F8CE591E00E94A30328
:1007C0006F2D8CE591E00E945603602F8CE591E03F
:1007D000DF91CF911F910F91FF900C945603CF930F
:1007E000DF9300D00F92CDB7DEB791E09983806898
:1007F0008A836B8363E0CE0101960E94CC030F9045
:100800000F900F90DF91CF910895AF92BF92CF924A
:10081000DF92EF92FF920F931F93CF93DF93CDB7A9
:10082000DEB7A3970FB6F894DEBF0FBECDBF982FEB
:10083000FB01822F983099F063E0A3960FB6F894ED
:10084000DEBF0FBECDBFDF91CF911F910F91FF9003
:10085000EF90DF90CF90BF90AF900C94EF0300919A
:100860002C0110912D01102701271027A0912E0196
:10087000B0912F01BA2EAB2E9501215031092031B4
:100880003105D0F66501E12CF12CC00ED11EE11C22
:10089000F11C4C151D041E041F0410F462E0CDCFA2
:1008A0006B2F660F91E099838A836B83000F111F72
:1008B000E00FF11F9E012F5F3F4F40E050E0C90164
:1008C000708111813296D90113961C931397149657
:1008D0007C934F5F5F4F2E5F3F4F4A155B0581F75B
:1008E0006D5F0E94CC03A3960FB6F894DEBF0FBED7
:1008F000CDBFDF91CF911F910F91FF90EF90DF90CF
:10090000CF90BF90AF900895CF92DF92EF92FF9279
:10091000CF93DF9300D000D00F92CDB7DEB7982FE2
:100920009B01842F983071F063E00F900F900F902F
:100930000F900F90DF91CF91FF90EF90DF90CF90CD
:100940000C94EF0340912C0150912D015427452721
:10095000542760912E0170912F0176276727762703
:10096000FB013197709700F76B01E12CF12CC40E5D
:10097000D51EE11CF11C93E0C916D104E104F10479
:1009800010F062E0D2CF91E099838A839B831D822D
:10099000F901E40FF51F20E080E090E041E050E035
:1009A0003191311539F0DA01082E01C0AA0F0A94ED
:1009B000EAF72A2B01966817790791F72C8364E0F0
:1009C000CE0101960E94CC030F900F900F900F90D4
:1009D0000F90DF91CF91FF90EF90DF90CF9008952F
:1009E0001F921FB61F9211242F933F938F939F93B3
:1009F000AF93BF938091500190915101A09152010A
:100A0000B091530130914F0123E0230F2D3750F562
:100A10000196A11DB11D20934F0180935001909329
:100A20005101A0935201B093530180914B019091D9
:100A30004C01A0914D01B0914E010196A11DB11D37
:100A400080934B0190934C01A0934D01B0934E01C4
:100A5000BF91AF919F918F913F912F911F901FBE9A
:100A60001F90189526E8230F0296A11DB11DD3CF24
:100A70002F932FB72F938F939F93EF93FF93E09133
:100A80006C01F0916D018081E0917201F091730130
:100A900082FD19C09081809175018F5F8F732091C5
:100AA0007601821741F0E0917501F0E0E45AFE4FC3
:100AB000958F80937501FF91EF919F918F912F9169
:100AC0002FBF2F9118958081F6CF1F920F920FB6EE
:100AD0000F9211242F933F934F935F936F937F93C4
:100AE0008F939F93AF93BF93EF93FF938CE591E028
:100AF0000E94C402FF91EF91BF91AF919F918F919E
:100B00007F916F915F914F913F912F910F900FBE09
:100B10000F901F901895ECE5F1E01382128288EE99
:100B200093E0A0E0B0E084839583A683B78382E15D
:100B300091E09183808385EC90E09587848784ECB5
:100B400090E09787868780EC90E0918B808B81EC9A
:100B500090E0938B828B82EC90E0958B848B86EC7B
:100B600090E0978B868B118E128E138E148E0895C3
:100B700000D000D000D0CDB7DEB7789484B58260C5
:100B800084BD84B5816084BD85B5826085BD85B531
:100B9000816085BD80916E00816080936E001092AF
:100BA000810080918100826080938100809181002A
:100BB00081608093810080918000816080938000BB
:100BC0008091B10084608093B1008091B000816019
:100BD0008093B00080917A00846080937A00809145
:100BE0007A00826080937A0080917A00816080939D
:100BF0007A0080917A00806880937A001092C10018
:100C0000E0916C01F0916D0182E08083E0916801D8
:100C1000F09169011082E0916A01F0916B018FEC13
:100C2000808310927401E0917001F091710186E06F
:100C30008083E0916E01F0916F01808180618083FB
:100C4000E0916E01F0916F01808188608083E09176
:100C50006E01F0916F01808180688083E0916E0168
:100C6000F0916F0180818F7D808362E082E00E943D
:100C7000000162E083E00E94000161E084E00E94E4
:100C8000000160E084E00E94560161E085E00E947E
:100C9000000160E085E00E9456010E94AC01E0E0A6
:100CA0008E2EE0E09E2E8CE591E00E94E6021091EF
:100CB0004A01892BE9F5111509F45FC00E94DB0098
:100CC000C0902601D0902701E0902801F0902901E2
:100CD0006C197D098E099F09693B7B40810591054F
:100CE00008F44BC0143008F446C0C12ED12C6EEF6E
:100CF000610F8AE291E00E948C00F601E75DFE4FF1
:100D00003081F601E85DFE4F20812817390799F5FB
:100D100080912A01813079F580912B01EFEFE80F66
:100D2000E03108F094C1F0E0E859F54F0C9429083F
:100D30008CE591E01032B0F40E94130391E0910F22
:100D400090934A01E12FF0E0E65DFE4F80830E9420
:100D5000DB00609326017093270180932801909314
:100D60002901A1CF0E941303F2CF41E060E271E0BC
:100D7000812F0E94840410924A012FB7F894809129
:100D8000500190915101A0915201B09153012FBF98
:100D9000409122015091230160912401709125011D
:100DA0008C019D01041B150B260B370BB901A80103
:100DB0004C3251406105710550F0809322019093AF
:100DC0002301A0932401B09325010E94AC0181145A
:100DD000910409F468CF0E94F102811509F463CFF0
:100DE0000E94000060CF42E064E571E0C1CF23E0E3
:100DF00046E060E071E0812F0E940504BCCF24E052
:100E000043E066E571E0F7CF183029F063E085E054
:100E10000E94EF03B0CF80912C0190912D01982773
:100E2000892798278230910510F062E0F0CF209159
:100E30002E0130912F012115310519F02F3F310579
:100E400029F761E02F3F310509F060E0FC01E05E29
:100E5000FE4F6083845F9E4FFC0180810E9456019B
:100E600048E050E06AE271E08CE591E00E94A30363
:100E700082CF63E0183059F480912C0190912D01BC
:100E80009827892798278630910518F062E086E038
:100E9000BFCF880F991FFC01E050FF4F80912E01BA
:100EA00090912F0198278927982791838083D8CF05
:100EB000193018F463E08FE0ABCFE0902E01F09092
:100EC0002F01FE24EF24FE24C701019780319105F4
:100ED00088F720913001089663E0969587956A958A
:100EE000E1F72817190631F78AE090E0213011F078
:100EF0008BE090E08C159D05E9F600912C01109196
:100F00002D01102701271027C701A0E0B0E0800FB6
:100F1000911FA11DB11D0397A105B10510F062E05D
:100F2000CACF9801205E3E4F5901045F1E4FC12C6D
:100F3000D12C6091310170E00C2C02C07595679541
:100F40000A94E2F7862F8170F50181935F01617049
:100F50007727F80181918F010E945601FFEFCF1A88
:100F6000DF0AEC14FD0429F781E089838FE08A838E
:100F700080912C018B8380912D018C8380912E0197
:100F80008D8380912F018E8366E0CE0101960E94B1
:100F9000CC03F1CE193018F463E080E139CF8091B1
:100FA0002E0190912F019827892798279C01215085
:100FB00031092031310580F740913001242F30E094
:100FC000BC01660F771F4617170631F7275F3F4FA3
:100FD000C216D30609F7E0912C01F0912D01FE27EE
:100FE000EF27FE27AC0160E070E04E0F5F1F611D30
:100FF000711D473051056105710510F062E0CDCFDC
:1010000000912C0110912D0170912E0160912F0102
:10101000AAE2B1E0EE0FFF1FE050FF4F20E030E00A
:1010200017965C91179718964C9118974193519386
:101030002F5F3F4F12962817390791F781E0898378
:1010400080E18A830B831C837D836E839DCF61E067
:10105000DFCEEE0FFF1F0590F491E02D099450585C
:10106000BB27AA270E9447080C94BA090E94AC0922
:1010700038F00E94B30920F039F49F3F19F426F4A8
:101080000C94A9090EF4E095E7FB0C94A309E92F51
:101090000E94CB0958F3BA176207730784079507B4
:1010A00020F079F4A6F50C94ED090EF4E0950B2EE2
:1010B000BA2FA02D0B01B90190010C01CA01A001AA
:1010C0001124FF27591B99F0593F50F4503E68F105
:1010D0001A16F040A22F232F342F4427585FF3CF46
:1010E000469537952795A795F0405395C9F77EF417
:1010F0001F16BA0B620B730B840BBAF09150A1F060
:10110000FF0FBB1F661F771F881FC2F70EC0BA0FE5
:10111000621F731F841F48F4879577956795B7956D
:10112000F7959E3F08F0B0CF9395880F08F0992768
:10113000EE0F9795879508950E947F0908F481E046
:1011400008950E94B5080C94BA090E94B30958F09A
:101150000E94AC0940F029F45F3F29F00C94A309E8
:1011600051110C94EE090C94A9090E94CB0968F363
:101170009923B1F3552391F3951B550BBB27AA2750
:1011800062177307840738F09F5F5F4F220F331F8A
:10119000441FAA1FA9F335D00E2E3AF0E0E832D052
:1011A00091505040E695001CCAF72BD0FE2F29D055
:1011B000660F771F881FBB1F261737074807AB0727
:1011C000B0E809F0BB0B802DBF01FF2793585F4F9C
:1011D0003AF09E3F510578F00C94A3090C94EE0967
:1011E0005F3FE4F3983ED4F3869577956795B7957E
:1011F000F7959F5FC9F7880F911D9695879597F989
:101200000895E1E0660F771F881FBB1F6217730701
:101210008407BA0720F0621B730B840BBA0BEE1F16
:1012200088F7E09508950E94D30988F09F5798F0B9
:10123000B92F9927B751B0F0E1F0660F771F881FDB
:10124000991F1AF0BA95C9F714C0B13091F00E94F5
:10125000ED09B1E008950C94ED09672F782F8827E8
:10126000B85F39F0B93FCCF3869577956795B3951C
:10127000D9F73EF490958095709561957F4F8F4F8B
:101280009F4F0895E89409C097FB3EF49095809590
:10129000709561957F4F8F4F9F4F9923A9F0F92F3C
:1012A00096E9BB279395F695879577956795B795BA
:1012B000F111F8CFFAF4BB0F11F460FF1BC06F5FA0
:1012C0007F4F8F4F9F4F16C0882311F096E911C0B2
:1012D000772321F09EE8872F762F05C0662371F0D3
:1012E00096E8862F70E060E02AF09A95660F771FE7
:1012F000881FDAF7880F9695879597F90895990FC3
:101300000008550FAA0BE0E8FEEF16161706E807CF
:10131000F907C0F012161306E407F50798F0621BF0
:10132000730B840B950B39F40A2661F0232B242BC5
:10133000252B21F408950A2609F4A140A6958FEFE4
:10134000811D811D089597F99F6780E870E060E036
:1013500008959FEF80EC089500240A94161617064E
:1013600018060906089500240A9412161306140696
:1013700005060895092E0394000C11F4882352F0F9
:10138000BB0F40F4BF2B11F460FF04C06F5F7F4FB1
:101390008F4F9F4F089557FD9058440F551F59F098
:1013A0005F3F71F04795880F97FB991F61F09F3F52
:1013B00079F087950895121613061406551FF2CF7B
:1013C0004695F1DF08C0161617061806991FF1CFCB
:1013D00086957105610508940895E894BB276627F2
:1013E0007727CB0197F908950E947F0908F48FEFC2
:1013F00008950E940C0A0C94BA090E94AC0938F0B6
:101400000E94B30920F0952311F00C94A3090C94C9
:10141000A90911240C94EE090E94CB0970F3959F41
:10142000C1F3950F50E0551F629FF001729FBB27DB
:10143000F00DB11D639FAA27F00DB11DAA1F649F77
:101440006627B00DA11D661F829F2227B00DA11D2A
:10145000621F739FB00DA11D621F839FA00D611DB0
:10146000221F749F3327A00D611D231F849F600DD1
:10147000211D822F762F6A2F11249F5750409AF0FA
:10148000F1F088234AF0EE0FFF1FBB1F661F771F86
:10149000881F91505040A9F79E3F510580F00C9451
:1014A000A3090C94EE095F3FE4F3983ED4F38695CC
:1014B00077956795B795F795E7959F5FC1F7FE2BF1
:1014C000880F911D9695879597F90895F894FFCF09
:1014D000B506F306F706FF060407390727082708AD
:1014E0002708270827082708270827085807CA07B2
:1014F000BC02B004C8AF20CB9065546F0405000057
:1015000000005603A30327033603E6021303050373
:107E0000112484B714BE81FFF0D085E080938100F7
:107E100082E08093C00088E18093C10086E0809377
:107E2000C20080E18093C4008EE0C9D0259A86E02C
:107E300020E33CEF91E0309385002093840096BBD3
:107E4000B09BFECF1D9AA8958150A9F7CC24DD24C4
:107E500088248394B5E0AB2EA1E19A2EF3E0BF2EE7
:107E6000A2D0813461F49FD0082FAFD0023811F036
:107E7000013811F484E001C083E08DD089C08234E0
:107E800011F484E103C0853419F485E0A6D080C0E4
:107E9000853579F488D0E82EFF2485D0082F10E0AE
:107EA000102F00270E291F29000F111F8ED06801E7
:107EB0006FC0863521F484E090D080E0DECF843638
:107EC00009F040C070D06FD0082F6DD080E0C81688
:107ED00080E7D80618F4F601B7BEE895C0E0D1E017
:107EE00062D089930C17E1F7F0E0CF16F0E7DF06D8
:107EF00018F0F601B7BEE89568D007B600FCFDCFD4
:107F0000A601A0E0B1E02C9130E011968C91119780
:107F100090E0982F8827822B932B1296FA010C0160
:107F200087BEE89511244E5F5F4FF1E0A038BF0790
:107F300051F7F601A7BEE89507B600FCFDCF97BE46
:107F4000E89526C08437B1F42ED02DD0F82E2BD052
:107F50003CD0F601EF2C8F010F5F1F4F84911BD097
:107F6000EA94F801C1F70894C11CD11CFA94CF0C13
:107F7000D11C0EC0853739F428D08EE10CD085E9AC
:107F80000AD08FE07ACF813511F488E018D01DD067
:107F900080E101D065CF982F8091C00085FFFCCF94
:107FA0009093C60008958091C00087FFFCCF809118
:107FB000C00084FD01C0A8958091C6000895E0E648
:107FC000F0E098E1908380830895EDDF803219F02E
:107FD00088E0F5DFFFCF84E1DECF1F93182FE3DFCA
:107FE0001150E9F7F2DF1F91089580E0E8DFEE27F6
:047FF000FF270994CA
:027FFE00040479
:0400000300007E007B
:00000001FF
